:0E0000000C9456000C9400000C9400000C941C
:10000E0000000C9400000C9400000C9400000C9462
:10001E0082000C9400000C9400000C9400000C94D0
:10002E0000000C9400000C94E8000C9400000C945A
:10003E001F010C9400000C9400000C9400000C9412
:10004E0000000C9400001027E80364000A00010071
:10005E000010000110000100000000000000000070
:10006E0000000000617364004C743A20000A2020E6
:10007E004C673A20000080C00100020066000A00B2
:10008E00040068000400600272000500640276003D
:10009E00080069027B000200B90784000000F89492
:1000AE00EE27ECBBF1E0F5BFE5BF8DE0A2E0BB278C
:1000BE00ED938A95E9F780E098E0A0E6ED9301973D
:1000CE00E9F7E6E8F0E085919591009761F0A5914A
:1000DE00B59105901590BF01F00105900D92019715
:1000EE00E1F7FB01F0CFEFE5EDBFE8E0EEBFC0E6D4
:1000FE00D2E00C94B9010A921A92FA926A937A9308
:10010E008A939A93AA93BA93EA93FA93EFB7EA93E0
:10011E00A0E6B2E00E941702A0917602A13409F087
:10012E0042C0E2E1F0E04F01EBE1F0E08E169F06F7
:10013E0084F4F501AAE0B0E00E94F502EF50FD4F05
:10014E00DF01F40172970E94BF02F40131964F0154
:10015E00EBCFEEE1F0E04F01E8E2F0E08E169F0605
:10016E0084F4F501AAE0B0E00E94F502E75BFA4FD5
:10017E00DF01F4017E970E94BF02F40131964F0118
:10018E00EBCFE091A107F091A207309709F465013A
:10019E00EBE3F0E0EA15FB051CF4AA24BB2403C034
:1001AE00F50131965F01E991EFBFF991E991B991AE
:1001BE00A9919991899179916991F99019900990E4
:1001CE001895AA93EA93FA93EFB7EA931A930A93C0
:1001DE001BB10CB1043211F444245524F2013196B2
:1001EE002F013197EF58FD4F0083E12FEC71E9F4A9
:1001FE00E091AB07EF5FE093AB07E150F0E0ED5518
:10020E00F84F0083A091AB07A83019F4E0E0E0931B
:10021E00AB07A091AD07AF5FA093AD07A83029F44F
:10022E00E0E0E093AD07689420F8099119911EC0A3
:10023E00AA93EA93FA93EFB7EA93E091B807E03006
:10024E00A9F0E150E093B807E091B707EF5FE093B4
:10025E00B707E150F0E0E255F84FE081ECB9A0911C
:10026E00B707A83019F4E0E0E093B707E991EFBFC4
:10027E00F991E991A9911895AA93A091B807A83080
:10028E00E1F3F894E091B807E03011F45D9918C0ED
:10029E00E091B607EF5FE093B607E150F0E0E2556C
:1002AE00F84FA881A083A091B607A83019F4E0E01A
:1002BE00E093B607E091B807EF5FE093B80702C08E
:1002CE00E881ECB978940C94BD02BA93AA93A881F4
:1002DE00B981EAE0F0E00E941603E05DAE2F0E94C5
:1002EE006402A881B981EAE0F0E00E941B03E05DA0
:1002FE00AE2F0E946402A4E6B2E00E94840266243D
:10030E007724E9E0F0E06E167F0684F4A881B981C7
:10031E00EAE00E94FD02EF50FD4FE60DF71DA081B1
:10032E000E946402F30131963F01EBCFA9E6B2E0E1
:10033E000E94840266247724EAE0F0E06E167F06BF
:10034E007CF4A881B9810E94FD02E75BFA4FE60DAD
:10035E00F71DA0810E946402F30131963F01ECCF9C
:10036E000C945402E0E0EABBEBBBE7BBEFEFE8BB5B
:10037E00E0E0E4BBE5BBE1BBE2BBEBB9E8EDEAB91B
:10038E00E6E8E0BDE0E0E0BDE3E3E9B9E0E0EFBDC3
:10039E00ECE0EEBDE0E0EDBDECBDE7BDE6BDE4EFAB
:1003AE00EBBDE3E2EABDE0E0E9BDE8BDE0E1E9BFB7
:1003BE00A0E10E9490027894B0990AC0B09BFECF43
:1003CE00E0E0E093A107E093A207F50131976F01FA
:1003DE00B1990BC0B19BFECF0E94CA0200240C142F
:1003EE000D041CF4F60131976F01B2990CC0B29B4B
:1003FE00FECF0E94CA02EBE3F0E0CE16DF061CF43D
:10040E00F60131966F01D60160DFA2E3B0E00E94E3
:10041E00E702E0E0EA93A0E00E944502CDCFFFCFD5
:10042E00BA93AA931A930E94D10221F0A12F0E948F
:10043E004301F9CFAAE00E94430168C0AA93EBB32F
:10044E00EF70AE2FE881E07FEA2BEBBB8DE08A9553
:10045E00F1F7DA9A8DE08A95F1F7DA988DE08A95C0
:10046E00F1F784C0AA93A881E9DFE881E295E883D9
:10047E00A881E4DF85E88A95F1F778C0AA93E88130
:10048E00F0E0E754F84FE081A981AE0FEBDFE98190
:10049E00E093BD07E881E093BE0722960895A2E09F
:1004AE000E94D902ACE0DEDFA1E00E94D902E0E0BA
:1004BE00E093BE07E093BD070895AA93A881AA30E2
:1004CE0031F0E091BF07A091BD07AE1760F0E0E0FC
:1004DE00EA93A091BE07AF5FA093BE07CFDFA881BE
:1004EE00AA3009F443C0E091BD07EF5FE093BD076A
:1004FE00D89AA881B7DFD89839C0BA93AA931A931D
:10050E000E94D10219F0A12FD8DFFACF18812396BD
:10051E000895AA93EAB3E06FEABBD29AD09AD19A21
:10052E00DA98D898D998E881E093BF07E058E0931D
:10053E00BB07E881E054E093BC07A4E1B0E00E9461
:10054E00E7020E94DF020E94DF020E94DF02A0E2A9
:10055E0075DF88EC90E00197F1F7A8E283DFA4E065
:10056E0081DFA5E87FDFA6E07DDF99DF2196089584
:10057E00EA0FFB1F0F01A1E7B2E0A80DB91DEC9128
:10058E00D001EC930895E1E0F0E0E093A107F09341
:10059E00A2070895A981BA81ED91A983BA831E2F6E
:1005AE00E03008950E943902A3E0B0E00C94E70217
:1005BE00A0E30E94250288EC90E00197F1F70895E0
:1005CE00109639F080ED97E00197F1F7A895119705
:1005DE00C9F70895F195E195F0400895FA9FF02D31
:1005EE00EB9FF00DEA9FE02DF10D08956E2F6A9F9F
:1005FE00F0016B9FF00D08950024112490E1AA0FD5
:10060E00BB1F001C111C0E1A1F0A18F40E0E1F1E03
:10061E0001C0A1609A9599F7FD01D001089512D0FD
:10062E00EBDF0EF4D7DF0895E894B7FF04C0A09572
:10063E00B09511966894F7FDCDDFDEDFFD010EF467
:10064E00C9DF0895E894F7FF02C0C4DF6894B7FFCE
:10065E0006C0A095B095119600F8039400FA08957F
:00000001FF
